{
  "contractName": "BirToken",
  "abi": [
    {
      "inputs": [],
      "payable": false,
      "stateMutability": "nonpayable",
      "type": "constructor"
    },
    {
      "constant": true,
      "inputs": [],
      "name": "totalSupply",
      "outputs": [
        {
          "internalType": "uint256",
          "name": "",
          "type": "uint256"
        }
      ],
      "payable": false,
      "stateMutability": "view",
      "type": "function"
    }
  ],
  "bytecode": "0x6080604052348015600f57600080fd5b506103e86000819055506084806100276000396000f3fe6080604052348015600f57600080fd5b506004361060285760003560e01c806318160ddd14602d575b600080fd5b60336049565b6040518082815260200191505060405180910390f35b6000548156fea265627a7a723158201bcd2212947a6c6d6725884610598df329cca29683cddcd978d47f9495afa8cf64736f6c63430005100032",
  "source": "pragma solidity >=0.4.22 <0.7.0;\r\ncontract BirToken{\r\n\tuint public totalSupply;\r\n\tconstructor()public{\r\n\t\ttotalSupply=1000;\r\n\t} \r\n}",
  "sourcePath": "C:\\Users\\seema kuril\\Desktop\\myCrypto\\contracts\\BirToken.sol",
  "compiler": {
    "name": "solc",
    "version": "0.5.16+commit.9c3226ce.Emscripten.clang"
  },
  "schemaVersion": "3.1.0",
  "updatedAt": "2020-04-23T08:41:21.979Z",
  "networkType": "ethereum",
  "devdoc": {
    "methods": {}
  },
  "userdoc": {
    "methods": {}
  }
}