{
  "contractName": "BirTokenSale",
  "abi": [
    {
      "inputs": [
        {
          "internalType": "contract BirToken",
          "name": "_takenContract",
          "type": "address"
        },
        {
          "internalType": "uint256",
          "name": "_tokenPrice",
          "type": "uint256"
        }
      ],
      "payable": false,
      "stateMutability": "nonpayable",
      "type": "constructor"
    },
    {
      "anonymous": false,
      "inputs": [
        {
          "indexed": false,
          "internalType": "address",
          "name": "_buyer",
          "type": "address"
        },
        {
          "indexed": false,
          "internalType": "uint256",
          "name": "_amount",
          "type": "uint256"
        }
      ],
      "name": "Sell",
      "type": "event"
    },
    {
      "constant": true,
      "inputs": [],
      "name": "tokenContract",
      "outputs": [
        {
          "internalType": "contract BirToken",
          "name": "",
          "type": "address"
        }
      ],
      "payable": false,
      "stateMutability": "view",
      "type": "function"
    },
    {
      "constant": true,
      "inputs": [],
      "name": "tokenPrice",
      "outputs": [
        {
          "internalType": "uint256",
          "name": "",
          "type": "uint256"
        }
      ],
      "payable": false,
      "stateMutability": "view",
      "type": "function"
    },
    {
      "constant": true,
      "inputs": [],
      "name": "tokenSold",
      "outputs": [
        {
          "internalType": "uint256",
          "name": "",
          "type": "uint256"
        }
      ],
      "payable": false,
      "stateMutability": "view",
      "type": "function"
    },
    {
      "constant": false,
      "inputs": [
        {
          "internalType": "uint256",
          "name": "_numberOfTokens",
          "type": "uint256"
        }
      ],
      "name": "BuyTokens",
      "outputs": [],
      "payable": true,
      "stateMutability": "payable",
      "type": "function"
    }
  ],
  "bytecode": "0x608060405234801561001057600080fd5b506040516106363803806106368339818101604052604081101561003357600080fd5b810190808051906020019092919080519060200190929190505050336000806101000a81548173ffffffffffffffffffffffffffffffffffffffff021916908373ffffffffffffffffffffffffffffffffffffffff16021790555081600160006101000a81548173ffffffffffffffffffffffffffffffffffffffff021916908373ffffffffffffffffffffffffffffffffffffffff16021790555080600281905550505061054f806100e76000396000f3fe60806040526004361061003f5760003560e01c8063519ee19e1461004457806355a373d61461006f5780637ff9b596146100c657806389749adb146100f1575b600080fd5b34801561005057600080fd5b5061005961011f565b6040518082815260200191505060405180910390f35b34801561007b57600080fd5b50610084610125565b604051808273ffffffffffffffffffffffffffffffffffffffff1673ffffffffffffffffffffffffffffffffffffffff16815260200191505060405180910390f35b3480156100d257600080fd5b506100db61014b565b6040518082815260200191505060405180910390f35b61011d6004803603602081101561010757600080fd5b8101908080359060200190929190505050610151565b005b60035481565b600160009054906101000a900473ffffffffffffffffffffffffffffffffffffffff1681565b60025481565b61015d81600254610485565b34146101ac576040517f08c379a0000000000000000000000000000000000000000000000000000000008152600401808060200182810382526000815260200160200191505060405180910390fd5b80600160009054906101000a900473ffffffffffffffffffffffffffffffffffffffff1673ffffffffffffffffffffffffffffffffffffffff166370a08231306040518263ffffffff1660e01b8152600401808273ffffffffffffffffffffffffffffffffffffffff1673ffffffffffffffffffffffffffffffffffffffff16815260200191505060206040518083038186803b15801561024c57600080fd5b505afa158015610260573d6000803e3d6000fd5b505050506040513d602081101561027657600080fd5b810190808051906020019092919050505010156102d6576040517f08c379a0000000000000000000000000000000000000000000000000000000008152600401808060200182810382526000815260200160200191505060405180910390fd5b600160009054906101000a900473ffffffffffffffffffffffffffffffffffffffff1673ffffffffffffffffffffffffffffffffffffffff1663a9059cbb33836040518363ffffffff1660e01b8152600401808373ffffffffffffffffffffffffffffffffffffffff1673ffffffffffffffffffffffffffffffffffffffff16815260200182815260200192505050602060405180830381600087803b15801561037f57600080fd5b505af1158015610393573d6000803e3d6000fd5b505050506040513d60208110156103a957600080fd5b8101908080519060200190929190505050610407576040517f08c379a0000000000000000000000000000000000000000000000000000000008152600401808060200182810382526000815260200160200191505060405180910390fd5b806003600082825401925050819055507f5e5e995ce3133561afceaa51a9a154d5db228cd7525d34df5185582c18d3df093382604051808373ffffffffffffffffffffffffffffffffffffffff1673ffffffffffffffffffffffffffffffffffffffff1681526020018281526020019250505060405180910390a150565b6000808214806104a2575082828385029250828161049f57fe5b04145b610514576040517f08c379a00000000000000000000000000000000000000000000000000000000081526004018080602001828103825260148152602001807f64732d6d6174682d6d756c2d6f766572666c6f7700000000000000000000000081525060200191505060405180910390fd5b9291505056fea265627a7a7231582032ac78d7f57000e030af1cd10edc3d0f2b1c49ec830fd8d14b961f23623dca5c64736f6c63430005100032",
  "source": "pragma solidity >=0.4.22 <0.7.0;\r\nimport \"./BirToken.sol\";\r\ncontract BirTokenSale{\r\n\r\n    address admin;\r\n    BirToken public tokenContract;\r\n    //without public it showed the errpr that tokenPrice doesn'r exisst\r\n    uint public tokenPrice;\r\n    uint public tokenSold;\r\n    constructor(BirToken _takenContract,uint _tokenPrice)public{\r\n        //assign an admin\r\n        admin = msg.sender;\r\n        //Takem contract\r\n        tokenContract = _takenContract;\r\n        //Tooken  Price\r\n        tokenPrice = _tokenPrice;\r\n    }\r\n    event Sell(\r\n        address _buyer,\r\n        uint _amount\r\n    );\r\n\r\n    //multiply function\r\n    function mul(uint x, uint y) internal pure returns (uint z) {\r\n        require(y == 0 || (z = x * y) / y == x, \"ds-math-mul-overflow\");\r\n    }\r\n    //Buy Tokens\r\n    function BuyTokens(uint _numberOfTokens)public payable{\r\n        //require that value  is equal tp tokens\r\n        require(msg.value == mul(_numberOfTokens,tokenPrice),'');\r\n        //require that the contract has enough tokens\r\n        require(tokenContract.balanceOf(address(this)) >= _numberOfTokens,'');\r\n        //require that a trasfer is successful\r\n        require(tokenContract.transfer(msg.sender,_numberOfTokens),'');\r\n        //keep reack of tokensold\r\n        tokenSold += _numberOfTokens;\r\n        //trigger sell event\r\n        emit Sell(msg.sender,_numberOfTokens);\r\n    }\r\n}\r\n",
  "sourcePath": "C:\\Users\\seema kuril\\Desktop\\myCrypto\\contracts\\BirTokenSale.sol",
  "compiler": {
    "name": "solc",
    "version": "0.5.16+commit.9c3226ce.Emscripten.clang"
  },
  "schemaVersion": "3.1.0",
  "updatedAt": "2020-05-02T06:01:09.504Z",
  "networkType": "ethereum",
  "devdoc": {
    "methods": {}
  },
  "userdoc": {
    "methods": {}
  }
}